{
  "contractName": "GBUTManager",
  "abi": [
    {
      "constant": true,
      "inputs": [],
      "name": "gbuToken",
      "outputs": [
        {
          "name": "",
          "type": "address"
        }
      ],
      "payable": false,
      "stateMutability": "view",
      "type": "function"
    },
    {
      "constant": true,
      "inputs": [],
      "name": "admin",
      "outputs": [
        {
          "name": "",
          "type": "address"
        }
      ],
      "payable": false,
      "stateMutability": "view",
      "type": "function"
    },
    {
      "inputs": [
        {
          "name": "_GBUToken",
          "type": "address"
        },
        {
          "name": "_admin",
          "type": "address"
        },
        {
          "name": "_incentivelimit",
          "type": "uint256"
        }
      ],
      "payable": false,
      "stateMutability": "nonpayable",
      "type": "constructor"
    },
    {
      "payable": true,
      "stateMutability": "payable",
      "type": "fallback"
    },
    {
      "anonymous": false,
      "inputs": [
        {
          "indexed": true,
          "name": "from",
          "type": "address"
        },
        {
          "indexed": true,
          "name": "to",
          "type": "address"
        },
        {
          "indexed": false,
          "name": "value",
          "type": "uint256"
        }
      ],
      "name": "isPutIncentive",
      "type": "event"
    },
    {
      "constant": false,
      "inputs": [
        {
          "name": "_user",
          "type": "address"
        },
        {
          "name": "_incentive",
          "type": "uint256"
        }
      ],
      "name": "putIncentive",
      "outputs": [],
      "payable": false,
      "stateMutability": "nonpayable",
      "type": "function"
    },
    {
      "constant": false,
      "inputs": [
        {
          "name": "_from",
          "type": "address"
        },
        {
          "name": "_to",
          "type": "address"
        },
        {
          "name": "_incentive",
          "type": "uint256"
        }
      ],
      "name": "sendIncentive",
      "outputs": [],
      "payable": false,
      "stateMutability": "nonpayable",
      "type": "function"
    },
    {
      "constant": true,
      "inputs": [
        {
          "name": "_user",
          "type": "address"
        }
      ],
      "name": "viewBalanceOf",
      "outputs": [
        {
          "name": "",
          "type": "uint256"
        }
      ],
      "payable": false,
      "stateMutability": "view",
      "type": "function"
    }
  ],
  "bytecode": "0x608060405234801561001057600080fd5b50604051606080610821833981018060405281019080805190602001909291908051906020019092919080519060200190929190505050826000806101000a81548173ffffffffffffffffffffffffffffffffffffffff021916908373ffffffffffffffffffffffffffffffffffffffff16021790555081600160006101000a81548173ffffffffffffffffffffffffffffffffffffffff021916908373ffffffffffffffffffffffffffffffffffffffff16021790555080600281905550505050610740806100e16000396000f30060806040526004361061006d576000357c0100000000000000000000000000000000000000000000000000000000900463ffffffff1680635772944c146100725780637c5b6925146100df578063a1e56d1e1461012c578063c2ca932f14610183578063f851a440146101da575b600080fd5b34801561007e57600080fd5b506100dd600480360381019080803573ffffffffffffffffffffffffffffffffffffffff169060200190929190803573ffffffffffffffffffffffffffffffffffffffff16906020019092919080359060200190929190505050610231565b005b3480156100eb57600080fd5b5061012a600480360381019080803573ffffffffffffffffffffffffffffffffffffffff1690602001909291908035906020019092919050505061037b565b005b34801561013857600080fd5b506101416105c9565b604051808273ffffffffffffffffffffffffffffffffffffffff1673ffffffffffffffffffffffffffffffffffffffff16815260200191505060405180910390f35b34801561018f57600080fd5b506101c4600480360381019080803573ffffffffffffffffffffffffffffffffffffffff1690602001909291905050506105ee565b6040518082815260200191505060405180910390f35b3480156101e657600080fd5b506101ef6106ee565b604051808273ffffffffffffffffffffffffffffffffffffffff1673ffffffffffffffffffffffffffffffffffffffff16815260200191505060405180910390f35b600254811115151561024257600080fd5b6000809054906101000a900473ffffffffffffffffffffffffffffffffffffffff1673ffffffffffffffffffffffffffffffffffffffff166323b872dd8484846040518463ffffffff167c0100000000000000000000000000000000000000000000000000000000028152600401808473ffffffffffffffffffffffffffffffffffffffff1673ffffffffffffffffffffffffffffffffffffffff1681526020018373ffffffffffffffffffffffffffffffffffffffff1673ffffffffffffffffffffffffffffffffffffffff1681526020018281526020019350505050602060405180830381600087803b15801561033a57600080fd5b505af115801561034e573d6000803e3d6000fd5b505050506040513d602081101561036457600080fd5b810190808051906020019092919050505050505050565b600160009054906101000a900473ffffffffffffffffffffffffffffffffffffffff1673ffffffffffffffffffffffffffffffffffffffff163373ffffffffffffffffffffffffffffffffffffffff161415156103d757600080fd5b60025481111515156103e857600080fd5b6000809054906101000a900473ffffffffffffffffffffffffffffffffffffffff1673ffffffffffffffffffffffffffffffffffffffff166323b872dd600160009054906101000a900473ffffffffffffffffffffffffffffffffffffffff1684846040518463ffffffff167c0100000000000000000000000000000000000000000000000000000000028152600401808473ffffffffffffffffffffffffffffffffffffffff1673ffffffffffffffffffffffffffffffffffffffff1681526020018373ffffffffffffffffffffffffffffffffffffffff1673ffffffffffffffffffffffffffffffffffffffff1681526020018281526020019350505050602060405180830381600087803b15801561050257600080fd5b505af1158015610516573d6000803e3d6000fd5b505050506040513d602081101561052c57600080fd5b8101908080519060200190929190505050508173ffffffffffffffffffffffffffffffffffffffff16600160009054906101000a900473ffffffffffffffffffffffffffffffffffffffff1673ffffffffffffffffffffffffffffffffffffffff167f6f7ed7068b26d7bcdd3cf9dbb3278aff2355dd62404162bb0d2e937f6d671042836040518082815260200191505060405180910390a35050565b6000809054906101000a900473ffffffffffffffffffffffffffffffffffffffff1681565b60008060009054906101000a900473ffffffffffffffffffffffffffffffffffffffff1673ffffffffffffffffffffffffffffffffffffffff166370a08231836040518263ffffffff167c0100000000000000000000000000000000000000000000000000000000028152600401808273ffffffffffffffffffffffffffffffffffffffff1673ffffffffffffffffffffffffffffffffffffffff168152602001915050602060405180830381600087803b1580156106ac57600080fd5b505af11580156106c0573d6000803e3d6000fd5b505050506040513d60208110156106d657600080fd5b81019080805190602001909291905050509050919050565b600160009054906101000a900473ffffffffffffffffffffffffffffffffffffffff16815600a165627a7a723058204dcce8878896b366391d03b2c568386c8b22af4a20c03f480ddc8ce3073724ef0029",
  "source": "pragma solidity >=0.4.19;\n\nimport \"openzeppelin-solidity/contracts/token/ERC20/StandardToken.sol\";\n\ncontract GBUTManager {\n    StandardToken public gbuToken; //GBUToken 기능 쓰기 위한 객체\n    address public admin; //컨트랙을 만든 주인EOA 주소\n    uint256 private INCENTIVE_LIMIT; //1회 인센티브 지급 제한량\n    event isPutIncentive(\n        address indexed from,\n        address indexed to,\n        uint256 value\n    );\n\n    constructor(\n        address _GBUToken,\n        address _admin,\n        uint256 _incentivelimit\n    ) public {\n        gbuToken = StandardToken(_GBUToken);\n        admin = _admin;\n        INCENTIVE_LIMIT = _incentivelimit;\n    }\n\n    // REJECT any incoming ether\n    function() external payable {\n        revert();\n    } //안에 ; 안붙이면 컴파일 에러\n\n    modifier onlyOwner() {\n        //기능 이름 onlyOnwer admin만이 사용할 수 있는 기능 제한\n        require(msg.sender == admin);\n        _; //모디파이어가 실제 실행되는 기능의 실제 코드에 해당되는 부분\n    }\n\n    // 특정 사용자에게 인센티브 지급\n    function putIncentive(address _user, uint256 _incentive) public onlyOwner {\n        require(_incentive <= INCENTIVE_LIMIT); //인센티브 제한은 일단 고정으로\n        gbuToken.transferFrom(admin, _user, _incentive); //admin의 토큰을 사용자에게로 GBUTManager에게 대신 전송 요청\n        emit isPutIncentive(admin, _user, _incentive); //관리자의 인센티브 지급에 대해선 이벤트를 하나 더 보내 구별되도록 함.\n    }\n\n    //사용자간의 인센티브 전송을 위한 transferFrom필요(GBUTManager에 대해 approve하므로 이쪽에 필요)\n    function sendIncentive(\n        address _from,\n        address _to,\n        uint256 _incentive\n    ) public {\n        require(_incentive <= INCENTIVE_LIMIT); //인센티브 제한은 일단 고정으로\n        gbuToken.transferFrom(_from, _to, _incentive); //_user의 토큰을 사용자에게로 GBUTManager에게 전송 요청\n    }\n\n    // 해당 유저의 balance 얻기\n    function viewBalanceOf(address _user) public view returns (uint256) {\n        return gbuToken.balanceOf(_user);\n    }\n}\n",
  "sourcePath": "D:\\Users\\Seungha\\cs_project\\truffle\\contracts\\GBUTManager.sol",
  "compiler": {
    "name": "solc",
    "version": "0.4.25+commit.59dbf8f1.Emscripten.clang"
  },
  "schemaVersion": "2.0.2",
  "updatedAt": "2022-07-13T04:01:10.249Z"
}